:020000020000FC
:040000000C9422003A
:04000C000C94A200AE
:040034000C94930095
:100040000C9493000FEF0DBF08E00EBFF89400E88A
:100050000093610004E00093610003E005BD04E645
:1000600006BD0FEF0AB907B900E00BB908B900E007
:1000700004B90FEF05B97E306D79335B5F707F7B1C
:100080000E94670001E000936E0003E000936B00A4
:1000900001E00093680080E070E060E050E040E044
:1000A00030E020E010E000E074919491789438B949
:1000B00060FF06C0449800E00BB9459A9BB9F7CFA2
:1000C000459800E00BB9449A7BB938B9F0CFE6E720
:1000D000F0E008950E94670000E0051719F003950D
:1000E0003196FBCF74915A3089F450E00E9467003A
:1000F00074918395863009F480E00E94670000E0E7
:10010000081719F003953196FBCF949153950895F4
:100110003395303109F430E00895303011F03A95DC
:1001200008953FE008950F930FB70F9304E606BDBF
:100130006395623319F40E946A0060E00F910FBF6B
:100140000F9118950F930FB70F93189B0E948D0076
:0E015000199B0E9488000F910FBF0F91189508
:00000001FF
