:020000020000FC
:040000000C9422003A
:04000C000C94A400AC
:040024000C94040133
:040034000C94F70031
:100040000C94C9000FEF0DBF08E00EBFF89400E854
:100050000093610004E00093610003E005BD04E645
:1000600006BD07EF0093840002EC0093850000E0DA
:100070000093800003E0009381000FEF0AB907B9F5
:1000800000E00BB908B9209821982298289A299A5B
:100090002A9A239A249A259A2B982C982D987D4851
:1000A0003E6E4B67774C7F6F0E94A10001E000938A
:1000B000700001E000936F0001E000936E0007E024
:1000C00000936B0001E00093680044272227332748
:1000D000442710E000E011247491949178941BB9A6
:1000E000203079F0213089F0223099F02330A9F0C6
:1000F0002430B9F02530C9F02630D9F02730E9F0A6
:10010000EECF2B982C982D98EACF2B9A2C982D98DF
:10011000E6CF2B982C9A2D98E2CF2B9A2C9A2D98DB
:10012000DECF2B982C982D9ADACF2B9A2C982D9ADB
:10013000D6CF2B982C9A2D9AD2CF2B9A2C9A2D9AD7
:10014000CECFEEE9F0E008950F930FB70F931A9B0F
:10015000239508E0201709F42227203071F0213080
:1001600069F0223061F0233059F0243051F025300D
:1001700049F0263041F0273039F007C006C005C0ED
:1001800004C003C002C001C000C00F910FBF0F9197
:1001900018951F930F930FB70F9304E606BD10E059
:1001A0001394012D013031F0023049F0033061F039
:1001B000043079F018B91BB9409A5BB90FC018B96F
:1001C0001BB9419A6BB90AC018B91BB9429A7BB9DD
:1001D00005C018B91BB9439A8BB900C0043011F49B
:1001E0000027102E0F910FBF0F911F9118950F939D
:1001F0000FB70F9307EF0093840002EC0093850084
:100200000F910FBF0F9118950F930FB70F930F9189
:060210000FBF0F911895CD
:00000001FF
