:020000020000FC
:040000000C9422003A
:04000C000C94CD0182
:040024000C94BA027C
:040034000C948402A2
:100040000C940F020FEF0DBF08E00EBFF89400E014
:100050000093C10000E80093610004E00093610098
:1000600005E005BD0BEF06BD05E0009381000EE144
:10007000009384000BE10093850004E00093B1003D
:1000800004E60093B2000FEF0AB907B900E00BB91C
:1000900008B9209821982298289A299A2A9A239A6E
:1000A000249A259A2B982C982D987D483E6E4B6764
:1000B000774C7F6F1F1C1F1E1F1E1F1F1E1F1E1F22
:1000C0007D5F17000E941D01EAEAF0E001E0009365
:1000D000700001E000936F0001E000936E0007E004
:1000E00000936B0001E000936800442755276627C2
:1000F000112422243324442455246624882401E036
:10010000902E702EAA24BB24CC24DD24EE24FF24C0
:1001100000271127222733274427552766277727CB
:1001200088279927AA27BB27CC277894403089F0C5
:10013000413081F0423079F0433071F0443069F061
:10014000453061F0463059F0473051F0483049F0C1
:10015000EDCF08C00FC016C02AC03EC047C050C077
:1001600064C068C071E02B982C982D9801E0009332
:100170006F00DCCF72E02B9A2C982D9801E0009351
:100180006F00D4CF002700936F0071E02B982C9A5A
:100190002D98613021F0623031F06627C7CF0E9480
:1001A00020016627C3CF0E9431016627BFCF0027F9
:1001B00000936F0071E02B9A2C9A2D98613021F0FA
:1001C000623031F06627B2CF0E9442016627AECF7F
:1001D0000E945C016627AACF72E02B982C982D9A7A
:1001E000613019F460E00E946F01A0CF72E02B9A99
:1001F0002C982D9A613019F460E00E948D0196CF01
:1002000071E02B982C9A2D9A002700936F00613093
:1002100021F0623031F0662789CF0E94AB0166275A
:1002200085CF0E94BC01662781CF71E02B9A2C9A62
:100230002D9A7CCFE0ECF0E079CFEAEAF0E0089587
:10024000032D03950A3049F40027302E042D039521
:10025000063029F40027402E0895302E0895402EB0
:100260000895032D0A950F3F49F409E0302E042D1F
:100270000A950F3F29F405E0402E0895302E089589
:10028000402E0895062D023029F4052D03950430E3
:1002900079F40AC0052D03950A3051F40027502E39
:1002A000062D0395063031F40027602E502E089558
:1002B000502E0895602E0895052D0A950F3F59F48C
:1002C00009E0502E062D0A950F3F39F402E0602E0A
:1002D00003E0502E0895502E0895602E0895882D25
:1002E000B82F880FBB0FBB0FBB0F8B0F870DE4EB35
:1002F000F0E0E90FF11DB491082F0B1721F47724DA
:10030000882488270895072D03950A3021F40027B3
:10031000772483940895702E08950A2D013031F4C6
:10032000092D0395033039F4002705C0092D0395E5
:100330000A3009F40027902E003031F40A2D03957D
:10034000023009F40027A02E092F03950D3009F47F
:100350000027902F08950B2D03950A3049F40027AC
:10036000B02E0C2D0395063029F40027C02E0895D9
:10037000B02E0895C02E08950B2D0A950F3F49F415
:1003800009E0B02E0C2D0A950F3F29F405E0C02E90
:100390000895B02E0895C02E08950F930FB70F93B0
:1003A0001A9B439509E0401709F44427403081F037
:1003B000413079F0423071F0433089F04430A1F09F
:1003C0004530B9F04630D1F04730E9F0483001F11E
:1003D00022C021C0199B61E0189B62E01CC0199BE0
:1003E00061E0189B62E017C0199B61E0189B62E016
:1003F00012C0199B61E0189B62E00DC0199B61E07F
:10040000189B62E008C0199B61E0189B62E003C082
:10041000199B61E000C00F910FBF0F9118950F93CA
:100420000FB70F930BEF06BD2394022D013039F067
:100430000230E1F0033089F1043001F045C040980A
:10044000419842981BB8713021F0723021F073301E
:1004500021F0032D03C0072D01C00B2DEAEAF0E0C7
:10046000E00FF11D0491439A0BB945C040984198A3
:1004700043981BB8713021F0723021F0733021F0B5
:10048000042D03C0082D01C00C2DEAEAF0E0E00FB6
:10049000F11D0491429A0BB92EC04098429843989E
:1004A0001BB8713021F0723021F0733021F0052D2E
:1004B00003C0092D01C00D2DEAEAF0E0E00FF11DA7
:1004C0000491419A0BB917C04198429843981BB8C0
:1004D000713021F0723021F0733021F0062D03C00D
:1004E0000A2D01C00E2DEAEAF0E0E00FF11D0491A3
:1004F000409A0BB900C0022D043011F40027202EC1
:100500000F910FBF0F9118950F930FB70F930EE137
:10051000009384000BE100938500032D03950A30BE
:1005200009F40027302E003009F5042D039506301C
:1005300009F40027402E0030C9F4062D023029F4BA
:10054000052D0395043031F40BC0052D03950A30B9
:1005500009F40027502E003049F4062D023021F412
:1005600066245524002702C00395602E0F910FBF0B
:100570000F9118950F930FB70F930F910FBF0F9116
:020580001895CC
:00000001FF
