:020000020000FC
:040000000C9422003A
:04000C000C943D0112
:040034000C94CE0159
:100040000C946A010FEF0DBF08E00EBFF89400E0BA
:100050000093C10000E80093610004E00093610098
:1000600005E005BD0BEF06BD01E005BB00E0009318
:10007000800005E0009381000EE1009384000BE115
:100080000093850001E00093160008ED0093B20094
:1000900004E00093B10001E0009317000FEF0AB9EC
:1000A00007B900E00BB908B9209821982298289A3E
:1000B000299A2A9A239A249A259A2B982C982D9833
:1000C0007D483E6E4B67774C7F6F1F1C1F1E1F1EA7
:1000D0001F1F1E1F1E1F0E94DE00E0ECF0E001E06B
:1000E0000093700001E000936E0007E000936B0046
:1000F00001E000936800442722273327442755272F
:1001000010E0112422243324442455246624772427
:10011000882401E0902EAA24BB24CC2400277894C4
:10012000203079F02130A9F02230C1F0233001F1E4
:10013000243031F1253071F12630B1F12730C9F189
:10014000EFCF51E02B982C982D9801E000936E0092
:10015000E7CF52E02B9A2C982D98E2CF51E02B98C4
:100160002C9A2D9800E000936F0000938100D8CF67
:1001700051E02B9A2C9A2D9800E000936F00D0CF7D
:1001800052E02B982C982D9A413019F440E00E94AF
:100190000101C6CF52E02B9A2C982D9A413019F4C8
:1001A00040E00E941F01BCCF51E02B982C9A2D9A61
:1001B000B7CF51E02B9A2C9A2D9AB2CFE0ECF0E019
:1001C0000895032D03950A3011F400273324302EAF
:1001D00000300895042D0395063011F400274424BF
:1001E000402E0895032D0A95003009F409E0302EC1
:1001F00009300895042D0A95003009F405E0402ED9
:100200000895B82C1B2DBB0C110F110F110FB10E3F
:10021000B70CEAECF0E0EC0DF11D14910B2D011779
:1002200021F477248824BB240895072D03950A30F0
:1002300021F40027772483940895702E08950A2DC1
:10024000013031F4092D0395033039F4002705C03E
:10025000092D03950A3009F40027902E003031F45F
:100260000A2D0395023009F40027A02E0C2D0395CA
:100270000D3009F40027C02E08950F930FB70F9388
:100280001A9B239508E0201709F42227203071F0EB
:10029000213069F0223061F0233059F0243051F0E0
:1002A000253069F0263081F0273079F00FC00EC07C
:1002B0000DC00CC0199B41E0189B42E007C0199B80
:1002C00041E0189B42E002C001C000C00F910FBF87
:1002D0000F9118950F930FB70F930BEF06BD239453
:1002E000022D013031F00230B9F0033041F1043019
:1002F000C9F14098419842981BB8513011F05230E2
:1003000011F0032D01C0072DE0ECF0E0E00FF11D2E
:100310000491439A0BB939C04098419843981BB84F
:10032000513011F0523011F0042D01C0082DE0ECD5
:10033000F0E0E00FF11D0491429A0BB926C04098FD
:10034000429843981BB8513011F0523011F0052DEE
:1003500001C0092DE0ECF0E0E00FF11D0491419A9D
:100360000BB913C04198429843981BB8513011F013
:10037000523011F0062D01C00A2DE0ECF0E0E00F44
:10038000F11D0491409A0BB900C0022D043011F404
:100390000027202E0F910FBF0F9118950F930FB7C5
:1003A0000F930EE1009384000BE100938500032D71
:1003B00003950A3009F40027302E003009F5042D8A
:1003C0000395063009F40027402E0030C9F4062DAD
:1003D000023029F4052D0395043031F40BC0052DAE
:1003E00003950A3009F40027502E003049F4062DF9
:1003F000023021F466245524002702C00395602EA4
:100400000F910FBF0F9118950F930FB70F9308ED32
:100410000093B200C395C23311F45F9ACC270F91B9
:060420000FBF0F911895BB
:00000001FF
