:020000020000FC
:040000000C9422003A
:04000C000C943A0214
:040024000C945603DF
:040034000C94200305
:100040000C947E020FEF0DBF08E00EBFF89400E0A5
:100050000093C10000E80093610004E00093610098
:1000600005E005BD0BEF06BD05E0009381000EE144
:10007000009384000BE10093850004E00093B1003D
:1000800004E60093B2000FEF0AB907B900E00BB91C
:1000900008B9209821982298289A299A2A9A239A6E
:1000A000249A259A2B982C982D987D483E6E4B6764
:1000B000774C7F6F1F1C1F1E1F1E1F1F1E1F1E1F22
:1000C000007D5D170E944A01EAEAF0E001E000933A
:1000D000700001E000936F0001E000936E0007E004
:1000E00000936B0001E000936800442755276627C2
:1000F000112422243324442455246624882401E036
:10010000902E702EAA24BB24CC24DD24EE2403E000
:10011000F02E13E021E03327442755276627772761
:1001200088279927AA27BB27CC2700277894403017
:1001300089F0413081F0423079F0433071F0443041
:1001400069F0453061F0463059F0473051F04830A1
:1001500049F0EDCF08C011C01AC02EC042C04BC03C
:1001600054C068C07CC071E02B982C982D9801E099
:1001700000936F000E942C02DACF72E02B9A2C9829
:100180002D9801E000936F000E942C02D0CF002731
:1001900000936F0071E02B982C9A2D98613021F01C
:1001A000623031F06627C3CF0E944D016627BFCF72
:1001B0000E945E016627BBCF002700936F0071E0AD
:1001C0002B9A2C9A2D98613021F0623031F06627FD
:1001D000AECF0E946F016627AACF0E9489016627D1
:1001E000A6CF72E02B982C982D9A613019F460E01C
:1001F0000E949C019CCF72E02B9A2C982D9A613022
:1002000019F460E00E94BB0192CF73E02B982C9A06
:100210002D9A002700936F00613021F0623031F099
:10022000662785CF0E94DD01662781CF0E94EE01FF
:1002300066277DCF73E02B9A2C9A2D9A0027009386
:100240006F00613021F0623031F0662770CF0E947C
:10025000FF0166276CCF0E941902662768CF74E001
:10026000002700936F00613021F0623051F0662763
:100270005ECF31E0FF2412E021E00E942C026627CD
:1002800056CF30E003E0F02E13E021E00E942C0274
:1002900066274DCFEAEAF0E00895032D03950A3072
:1002A00049F40027302E042D0395063029F4002749
:1002B000402E0895302E0895402E0895032D0A955E
:1002C0000F3F49F409E0302E042D0A950F3F29F421
:1002D00005E0402E0895302E0895402E0895062DF5
:1002E000023029F4052D0395043079F40AC0052D58
:1002F00003950A3051F40027502E062D0395063041
:1003000031F40027602E502E0895502E0895602E4F
:100310000895052D0A950F3F59F409E0502E062D3A
:100320000A950F3F39F402E0602E03E0502E089545
:10033000502E0895602E0895882DB82F880FBB0F7A
:10034000BB0FBB0F8B0F870DE4EBF0E0E90FF11D46
:10035000B491082F0B1729F401E0702E8824882708
:100360000895072D03950A3021F4002777248394FC
:100370000895702E08950A2D013029F4092D039552
:10038000033031F40FC0092D03950A3009F400271A
:10039000902E003059F40A2D0395023009F40027FD
:1003A000A02E04C001E0902E0027A02E092F039557
:1003B0000D3009F401E0902F08950B2D03950A30BC
:1003C00049F40027B02E0C2D0395063029F40027A0
:1003D000C02E0895B02E0895C02E08950B2D0A95B5
:1003E0000F3F49F409E0B02E0C2D0A950F3F29F478
:1003F00005E0C02E0895B02E0895C02E08950E2D4C
:10040000023029F40D2D0395043079F40AC00D2D26
:1004100003950A3051F40027D02E0E2D0395063097
:1004200031F40027E02ED02E0895D02E0895E02E2E
:1004300008950D2D0A950F3F59F409E0D02E0E2D89
:100440000A950F3F39F402E0E02E03E0D02E089524
:10045000D02E0895E02E0895313051F43B1441F42C
:100460004C1431F45D1421F46E1411F4449A01C05B
:10047000449808950F930FB70F931A9B439509E083
:10048000401709F44427403081F0413079F0423080
:1004900071F0433089F04430A1F04530B9F0463076
:1004A000D1F04730E9F0483001F124C023C0199B56
:1004B00061E0189B62E01EC0199B61E0189B62E03E
:1004C00019C0199B61E0189B62E014C0199B61E0A0
:1004D000189B62E00FC0199B61E0189B62E00AC0A4
:1004E000199B61E0189B62E005C0199B61E0189BB5
:1004F00062E000C00F910FBF0F9118950F930FB7D7
:100500000F930BEF06BD2394022D013041F0023012
:1005100041F1033011F0043009F045C066C0409845
:10052000419842981BB8713031F0723031F073301D
:1005300031F0743069F0032D03C0072D01C00B2D7D
:10054000EAEAF0E0E00FF11D0491439A0BB96FC0A5
:100550000F2DE0ECF0E0E00FF11D0491439A0BB990
:1005600066C04098419843981BB8713031F07230A2
:1005700031F0733031F0743069F0042D03C0082D70
:1005800001C00C2DEAEAF0E0E00FF11D0491429A5F
:100590000BB94DC0012FE0ECF0E0E00FF11D04912C
:1005A000429A0BB944C04098429843981BB87130A6
:1005B00031F0723031F0733031F0743069F0052D64
:1005C00003C0092D01C00D2DEAEAF0E0E00FF11D96
:1005D0000491419A0BB92BC0022FE0ECF0E0E00F40
:1005E000F11D0491419A0BB922C041984298439859
:1005F0001BB8713031F0723031F0733031F074303B
:1006000069F0062D03C00A2D01C00E2DEAEAF0E0C4
:10061000E00FF11D0491409A0BB909C0012DE0ECE7
:10062000F0E0E00FF11D0491409A0BB900C0022DDB
:10063000043011F40027202E0F910FBF0F91189551
:100640000F930FB70F930EE1009384000BE100931B
:100650008500032D03950A3009F40027302E003061
:1006600009F5042D0395063009F40027402E0030CB
:10067000C9F4062D023029F4052D0395043031F418
:100680000BC0052D03950A3009F40027502E0030C9
:1006900049F4062D023021F466245524002702C0B7
:1006A0000395602E0F910FBF0F9118950F930FB701
:0A06B0000F930F910FBF0F911895E3
:00000001FF
