:020000020000FC
:040000000C9422003A
:04000C000C943C0113
:040024000C94060230
:040034000C94D00157
:100040000C946C010FEF0DBF08E00EBFF89400E0B8
:100050000093C10000E80093610004E00093610098
:1000600005E005BD0BEF06BD05E0009381000EE144
:10007000009384000BE10093850004E00093B1003D
:1000800004E60093B2000FEF0AB907B900E00BB91C
:1000900008B9209821982298289A299A2A9A239A6E
:1000A000249A259A2B982C982D987D483E6E4B6764
:1000B000774C7F6F1F1C1F1E1F1E1F1F1E1F1E1F22
:1000C0007D5F17000E94DD00EAEAF0E001E00093A6
:1000D000700001E000936F0001E000936E0007E004
:1000E00000936B0001E00093680044272227332728
:1000F0004427552710E01124222433244424552476
:1001000066247724882401E0902EAA24BB24CC24E2
:1001100000279927CC2778942030A1F02130D1F006
:100120002230E9F0233019F1243031F1253071F11A
:10013000263029F0273021F0283019F0EDCF30C0DB
:1001400034C038C051E02B982C982D9801E00093D2
:100150006F00E2CF52E02B9A2C982D98DDCF00272C
:1001600000936F0051E02B982C9A2D98D5CF51E039
:100170002B9A2C9A2D98D0CF52E02B982C982D9A10
:10018000413019F440E00E940001C6CF52E02B9AA2
:100190002C982D9A413019F440E00E941E01BCCFEA
:1001A00051E02B982C9A2D9AB7CF51E02B9A2C9A8C
:1001B0002D9AB2CFE0ECF0E0AFCFEAEAF0E008959C
:1001C000032D03950A3011F400273324302E00301C
:1001D0000895042D0395063011F400274424402E81
:1001E0000895032D0A95003009F409E0302E0930F6
:1001F0000895042D0A95003009F405E0402E089575
:10020000B82C1B2DBB0C110F110F110FB10EB70C19
:10021000E4EBF0E0EC0DF11D14910B2D011721F42E
:1002200077248824BB240895072D03950A3021F4F0
:100230000027772483940895702E08950A2D0130A5
:1002400031F4092D0395033039F4002705C0092D39
:1002500003950A3009F40027902E003031F40A2D5E
:100260000395023009F40027A02E0C2D03950D30C4
:1002700009F40027C02E08950F930FB70F931A9B10
:10028000239509E0201709F42227203081F021303E
:1002900079F0223071F0233069F0243061F025309C
:1002A00079F0263091F0273089F0283081F010C0A5
:1002B0000FC00EC00DC0199B41E0189B42E008C062
:1002C000199B41E0189B42E003C002C001C000C07E
:1002D0000F910FBF0F9118950F930FB70F930BEF5F
:1002E00006BD2394022D013031F00230B9F0033005
:1002F00041F10430C9F14098419842981BB85130FF
:1003000011F0523011F0032D01C0072DEAEAF0E0A0
:10031000E00FF11D0491439A0BB939C04098419800
:1003200043981BB8513011F0523011F0042D01C028
:10033000082DEAEAF0E0E00FF11D0491429A0BB9B2
:1003400026C04098429843981BB8513011F0523063
:1003500011F0052D01C0092DEAEAF0E0E00FF11DD2
:100360000491419A0BB913C04198429843981BB825
:10037000513011F0523011F0062D01C00A2DEAEA79
:10038000F0E0E00FF11D0491409A0BB900C0022D7E
:10039000043011F40027202E0F910FBF0F911895F4
:1003A0000F930FB70F930EE1009384000BE10093BE
:1003B0008500032D03950A3009F40027302E003004
:1003C00009F5042D0395063009F40027402E00306E
:1003D000C9F4062D023029F4052D0395043031F4BB
:1003E0000BC0052D03950A3009F40027502E00306C
:1003F00049F4062D023021F466245524002702C05A
:100400000395602E0F910FBF0F9118950F930FB7A3
:100410000F9304E60093B2009395923311F4359A4A
:0A04200099270F910FBF0F91189557
:00000001FF
